{
  "_format": "hh-sol-artifact-1",
  "contractName": "MyEpicNFT",
  "sourceName": "contracts/MyEpicNFT.sol",
  "abi": [
    {
      "inputs": [],
      "stateMutability": "nonpayable",
      "type": "constructor"
    },
    {
      "anonymous": false,
      "inputs": [
        {
          "indexed": true,
          "internalType": "address",
          "name": "owner",
          "type": "address"
        },
        {
          "indexed": true,
          "internalType": "address",
          "name": "approved",
          "type": "address"
        },
        {
          "indexed": true,
          "internalType": "uint256",
          "name": "tokenId",
          "type": "uint256"
        }
      ],
      "name": "Approval",
      "type": "event"
    },
    {
      "anonymous": false,
      "inputs": [
        {
          "indexed": true,
          "internalType": "address",
          "name": "owner",
          "type": "address"
        },
        {
          "indexed": true,
          "internalType": "address",
          "name": "operator",
          "type": "address"
        },
        {
          "indexed": false,
          "internalType": "bool",
          "name": "approved",
          "type": "bool"
        }
      ],
      "name": "ApprovalForAll",
      "type": "event"
    },
    {
      "anonymous": false,
      "inputs": [
        {
          "indexed": false,
          "internalType": "address",
          "name": "sender",
          "type": "address"
        },
        {
          "indexed": false,
          "internalType": "uint256",
          "name": "tokenId",
          "type": "uint256"
        }
      ],
      "name": "NewNFTMinted",
      "type": "event"
    },
    {
      "anonymous": false,
      "inputs": [
        {
          "indexed": true,
          "internalType": "address",
          "name": "from",
          "type": "address"
        },
        {
          "indexed": true,
          "internalType": "address",
          "name": "to",
          "type": "address"
        },
        {
          "indexed": true,
          "internalType": "uint256",
          "name": "tokenId",
          "type": "uint256"
        }
      ],
      "name": "Transfer",
      "type": "event"
    },
    {
      "inputs": [
        {
          "internalType": "address",
          "name": "to",
          "type": "address"
        },
        {
          "internalType": "uint256",
          "name": "tokenId",
          "type": "uint256"
        }
      ],
      "name": "approve",
      "outputs": [],
      "stateMutability": "nonpayable",
      "type": "function"
    },
    {
      "inputs": [
        {
          "internalType": "address",
          "name": "owner",
          "type": "address"
        }
      ],
      "name": "balanceOf",
      "outputs": [
        {
          "internalType": "uint256",
          "name": "",
          "type": "uint256"
        }
      ],
      "stateMutability": "view",
      "type": "function"
    },
    {
      "inputs": [],
      "name": "getAllNft",
      "outputs": [
        {
          "internalType": "uint256[]",
          "name": "",
          "type": "uint256[]"
        }
      ],
      "stateMutability": "view",
      "type": "function"
    },
    {
      "inputs": [
        {
          "internalType": "uint256",
          "name": "tokenId",
          "type": "uint256"
        }
      ],
      "name": "getApproved",
      "outputs": [
        {
          "internalType": "address",
          "name": "",
          "type": "address"
        }
      ],
      "stateMutability": "view",
      "type": "function"
    },
    {
      "inputs": [],
      "name": "getTokenUri",
      "outputs": [
        {
          "internalType": "string",
          "name": "",
          "type": "string"
        }
      ],
      "stateMutability": "view",
      "type": "function"
    },
    {
      "inputs": [
        {
          "internalType": "address",
          "name": "owner",
          "type": "address"
        },
        {
          "internalType": "address",
          "name": "operator",
          "type": "address"
        }
      ],
      "name": "isApprovedForAll",
      "outputs": [
        {
          "internalType": "bool",
          "name": "",
          "type": "bool"
        }
      ],
      "stateMutability": "view",
      "type": "function"
    },
    {
      "inputs": [],
      "name": "makeNFT",
      "outputs": [],
      "stateMutability": "nonpayable",
      "type": "function"
    },
    {
      "inputs": [],
      "name": "name",
      "outputs": [
        {
          "internalType": "string",
          "name": "",
          "type": "string"
        }
      ],
      "stateMutability": "view",
      "type": "function"
    },
    {
      "inputs": [
        {
          "internalType": "uint256",
          "name": "tokenId",
          "type": "uint256"
        }
      ],
      "name": "ownerOf",
      "outputs": [
        {
          "internalType": "address",
          "name": "",
          "type": "address"
        }
      ],
      "stateMutability": "view",
      "type": "function"
    },
    {
      "inputs": [
        {
          "internalType": "uint256",
          "name": "number",
          "type": "uint256"
        },
        {
          "internalType": "uint256",
          "name": "timestamp",
          "type": "uint256"
        },
        {
          "internalType": "uint256",
          "name": "difficulty",
          "type": "uint256"
        },
        {
          "internalType": "address",
          "name": "sender",
          "type": "address"
        }
      ],
      "name": "random",
      "outputs": [
        {
          "internalType": "uint256",
          "name": "",
          "type": "uint256"
        }
      ],
      "stateMutability": "pure",
      "type": "function"
    },
    {
      "inputs": [
        {
          "internalType": "address",
          "name": "from",
          "type": "address"
        },
        {
          "internalType": "address",
          "name": "to",
          "type": "address"
        },
        {
          "internalType": "uint256",
          "name": "tokenId",
          "type": "uint256"
        }
      ],
      "name": "safeTransferFrom",
      "outputs": [],
      "stateMutability": "nonpayable",
      "type": "function"
    },
    {
      "inputs": [
        {
          "internalType": "address",
          "name": "from",
          "type": "address"
        },
        {
          "internalType": "address",
          "name": "to",
          "type": "address"
        },
        {
          "internalType": "uint256",
          "name": "tokenId",
          "type": "uint256"
        },
        {
          "internalType": "bytes",
          "name": "data",
          "type": "bytes"
        }
      ],
      "name": "safeTransferFrom",
      "outputs": [],
      "stateMutability": "nonpayable",
      "type": "function"
    },
    {
      "inputs": [
        {
          "internalType": "address",
          "name": "operator",
          "type": "address"
        },
        {
          "internalType": "bool",
          "name": "approved",
          "type": "bool"
        }
      ],
      "name": "setApprovalForAll",
      "outputs": [],
      "stateMutability": "nonpayable",
      "type": "function"
    },
    {
      "inputs": [
        {
          "internalType": "bytes4",
          "name": "interfaceId",
          "type": "bytes4"
        }
      ],
      "name": "supportsInterface",
      "outputs": [
        {
          "internalType": "bool",
          "name": "",
          "type": "bool"
        }
      ],
      "stateMutability": "view",
      "type": "function"
    },
    {
      "inputs": [],
      "name": "symbol",
      "outputs": [
        {
          "internalType": "string",
          "name": "",
          "type": "string"
        }
      ],
      "stateMutability": "view",
      "type": "function"
    },
    {
      "inputs": [
        {
          "internalType": "uint256",
          "name": "tokenId",
          "type": "uint256"
        }
      ],
      "name": "tokenURI",
      "outputs": [
        {
          "internalType": "string",
          "name": "",
          "type": "string"
        }
      ],
      "stateMutability": "view",
      "type": "function"
    },
    {
      "inputs": [
        {
          "internalType": "address",
          "name": "from",
          "type": "address"
        },
        {
          "internalType": "address",
          "name": "to",
          "type": "address"
        },
        {
          "internalType": "uint256",
          "name": "tokenId",
          "type": "uint256"
        }
      ],
      "name": "transferFrom",
      "outputs": [],
      "stateMutability": "nonpayable",
      "type": "function"
    }
  ],
  "bytecode": "0x60806040523480156200001157600080fd5b506040518060400160405280600d81526020017f4563746f706c61736d614e4654000000000000000000000000000000000000008152506040518060400160405280600481526020017f4543544f0000000000000000000000000000000000000000000000000000000081525081600090816200008f91906200043b565b508060019081620000a191906200043b565b505050620000ef6040518060400160405280601e81526020017f54686973206973206d79204e465420636f6e74726163742e2057686f61210000815250620000f560201b62000c221760201c565b620005d5565b62000195816040516024016200010c9190620005b1565b6040516020818303038152906040527f41304fac000000000000000000000000000000000000000000000000000000007bffffffffffffffffffffffffffffffffffffffffffffffffffffffff19166020820180517bffffffffffffffffffffffffffffffffffffffffffffffffffffffff83818316178352505050506200019860201b60201c565b50565b60008151905060006a636f6e736f6c652e6c6f679050602083016000808483855afa5050505050565b600081519050919050565b7f4e487b7100000000000000000000000000000000000000000000000000000000600052604160045260246000fd5b7f4e487b7100000000000000000000000000000000000000000000000000000000600052602260045260246000fd5b600060028204905060018216806200024357607f821691505b602082108103620002595762000258620001fb565b5b50919050565b60008190508160005260206000209050919050565b60006020601f8301049050919050565b600082821b905092915050565b600060088302620002c37fffffffffffffffffffffffffffffffffffffffffffffffffffffffffffffffff8262000284565b620002cf868362000284565b95508019841693508086168417925050509392505050565b6000819050919050565b6000819050919050565b60006200031c620003166200031084620002e7565b620002f1565b620002e7565b9050919050565b6000819050919050565b6200033883620002fb565b62000350620003478262000323565b84845462000291565b825550505050565b600090565b6200036762000358565b620003748184846200032d565b505050565b5b818110156200039c57620003906000826200035d565b6001810190506200037a565b5050565b601f821115620003eb57620003b5816200025f565b620003c08462000274565b81016020851015620003d0578190505b620003e8620003df8562000274565b83018262000379565b50505b505050565b600082821c905092915050565b60006200041060001984600802620003f0565b1980831691505092915050565b60006200042b8383620003fd565b9150826002028217905092915050565b6200044682620001c1565b67ffffffffffffffff811115620004625762000461620001cc565b5b6200046e82546200022a565b6200047b828285620003a0565b600060209050601f831160018114620004b357600084156200049e578287015190505b620004aa85826200041d565b8655506200051a565b601f198416620004c3866200025f565b60005b82811015620004ed57848901518255600182019150602085019450602081019050620004c6565b868310156200050d578489015162000509601f891682620003fd565b8355505b6001600288020188555050505b505050505050565b600082825260208201905092915050565b60005b838110156200055357808201518184015260208101905062000536565b60008484015250505050565b6000601f19601f8301169050919050565b60006200057d82620001c1565b62000589818562000522565b93506200059b81856020860162000533565b620005a6816200055f565b840191505092915050565b60006020820190508181036000830152620005cd818462000570565b905092915050565b6138b280620005e56000396000f3fe608060405234801561001057600080fd5b506004361061010b5760003560e01c806368db80cc116100a2578063b036b4bd11610071578063b036b4bd146102ca578063b88d4fde146102d4578063c395c8af146102f0578063c87b56dd1461030e578063e985e9c51461033e5761010b565b806368db80cc1461023057806370a082311461026057806395d89b4114610290578063a22cb465146102ae5761010b565b806323b872dd116100de57806323b872dd146101aa57806342842e0e146101c65780636352211e146101e257806363ba31cf146102125761010b565b806301ffc9a71461011057806306fdde0314610140578063081812fc1461015e578063095ea7b31461018e575b600080fd5b61012a600480360381019061012591906122e4565b61036e565b604051610137919061232c565b60405180910390f35b610148610450565b60405161015591906123d7565b60405180910390f35b6101786004803603810190610173919061242f565b6104e2565b604051610185919061249d565b60405180910390f35b6101a860048036038101906101a391906124e4565b610528565b005b6101c460048036038101906101bf9190612524565b61063f565b005b6101e060048036038101906101db9190612524565b61069f565b005b6101fc60048036038101906101f7919061242f565b6106bf565b604051610209919061249d565b60405180910390f35b61021a610770565b6040516102279190612635565b60405180910390f35b61024a60048036038101906102459190612657565b610805565b60405161025791906126cd565b60405180910390f35b61027a600480360381019061027591906126e8565b61084a565b60405161028791906126cd565b60405180910390f35b610298610901565b6040516102a591906123d7565b60405180910390f35b6102c860048036038101906102c39190612741565b610993565b005b6102d26109a9565b005b6102ee60048036038101906102e991906128b6565b610a6d565b005b6102f8610acf565b60405161030591906123d7565b60405180910390f35b6103286004803603810190610323919061242f565b610b48565b60405161033591906123d7565b60405180910390f35b61035860048036038101906103539190612939565b610b8e565b604051610365919061232c565b60405180910390f35b60007f80ac58cd000000000000000000000000000000000000000000000000000000007bffffffffffffffffffffffffffffffffffffffffffffffffffffffff1916827bffffffffffffffffffffffffffffffffffffffffffffffffffffffff1916148061043957507f5b5e139f000000000000000000000000000000000000000000000000000000007bffffffffffffffffffffffffffffffffffffffffffffffffffffffff1916827bffffffffffffffffffffffffffffffffffffffffffffffffffffffff1916145b80610449575061044882610cbb565b5b9050919050565b60606000805461045f906129a8565b80601f016020809104026020016040519081016040528092919081815260200182805461048b906129a8565b80156104d85780601f106104ad576101008083540402835291602001916104d8565b820191906000526020600020905b8154815290600101906020018083116104bb57829003601f168201915b5050505050905090565b60006104ed82610d25565b6004600083815260200190815260200160002060009054906101000a900473ffffffffffffffffffffffffffffffffffffffff169050919050565b6000610533826106bf565b90508073ffffffffffffffffffffffffffffffffffffffff168373ffffffffffffffffffffffffffffffffffffffff16036105a3576040517f08c379a000000000000000000000000000000000000000000000000000000000815260040161059a90612a4b565b60405180910390fd5b8073ffffffffffffffffffffffffffffffffffffffff166105c2610d70565b73ffffffffffffffffffffffffffffffffffffffff1614806105f157506105f0816105eb610d70565b610b8e565b5b610630576040517f08c379a000000000000000000000000000000000000000000000000000000000815260040161062790612add565b60405180910390fd5b61063a8383610d78565b505050565b61065061064a610d70565b82610e31565b61068f576040517f08c379a000000000000000000000000000000000000000000000000000000000815260040161068690612b6f565b60405180910390fd5b61069a838383610ec6565b505050565b6106ba83838360405180602001604052806000815250610a6d565b505050565b6000806002600084815260200190815260200160002060009054906101000a900473ffffffffffffffffffffffffffffffffffffffff169050600073ffffffffffffffffffffffffffffffffffffffff168173ffffffffffffffffffffffffffffffffffffffff1603610767576040517f08c379a000000000000000000000000000000000000000000000000000000000815260040161075e90612bdb565b60405180910390fd5b80915050919050565b6060600960003373ffffffffffffffffffffffffffffffffffffffff1673ffffffffffffffffffffffffffffffffffffffff1681526020019081526020016000208054806020026020016040519081016040528092919081815260200182805480156107fb57602002820191906000526020600020905b8154815260200190600101908083116107e7575b5050505050905090565b60008484848460405160200161081d93929190612c64565b6040516020818303038152906040528051906020012060001c6108409190612cd0565b9050949350505050565b60008073ffffffffffffffffffffffffffffffffffffffff168273ffffffffffffffffffffffffffffffffffffffff16036108ba576040517f08c379a00000000000000000000000000000000000000000000000000000000081526004016108b190612d73565b60405180910390fd5b600360008373ffffffffffffffffffffffffffffffffffffffff1673ffffffffffffffffffffffffffffffffffffffff168152602001908152602001600020549050919050565b606060018054610910906129a8565b80601f016020809104026020016040519081016040528092919081815260200182805461093c906129a8565b80156109895780601f1061095e57610100808354040283529160200191610989565b820191906000526020600020905b81548152906001019060200180831161096c57829003601f168201915b5050505050905090565b6109a561099e610d70565b838361112c565b5050565b60006109b56007611298565b9050600960003373ffffffffffffffffffffffffffffffffffffffff1673ffffffffffffffffffffffffffffffffffffffff168152602001908152602001600020819080600181540180825580915050600190039060005260206000200160009091909190915055610a2733826112a6565b610a3160076112c4565b7f1c05098ed1ff38e6238d2b1b04b2c7977d4c94ce651bda6473f9dba8dbf01da03382604051610a62929190612d93565b60405180910390a150565b610a7e610a78610d70565b83610e31565b610abd576040517f08c379a0000000000000000000000000000000000000000000000000000000008152600401610ab490612b6f565b60405180910390fd5b610ac9848484846112da565b50505050565b60606000610b1a610aeb610ae6600a424433610805565b611336565b610b00610afb600a424433610805565b6115b4565b610b15610b10600a424433610805565b611832565b611ab0565b9050600081604051602001610b2f9190612e44565b6040516020818303038152906040529050809250505090565b6060610b5382611b50565b610b5c57600080fd5b610b7f604051806060016040528060258152602001613818602591398333611bbc565b610b87610acf565b9050919050565b6000600560008473ffffffffffffffffffffffffffffffffffffffff1673ffffffffffffffffffffffffffffffffffffffff16815260200190815260200160002060008373ffffffffffffffffffffffffffffffffffffffff1673ffffffffffffffffffffffffffffffffffffffff16815260200190815260200160002060009054906101000a900460ff16905092915050565b610cb881604051602401610c3691906123d7565b6040516020818303038152906040527f41304fac000000000000000000000000000000000000000000000000000000007bffffffffffffffffffffffffffffffffffffffffffffffffffffffff19166020820180517bffffffffffffffffffffffffffffffffffffffffffffffffffffffff8381831617835250505050611c5b565b50565b60007f01ffc9a7000000000000000000000000000000000000000000000000000000007bffffffffffffffffffffffffffffffffffffffffffffffffffffffff1916827bffffffffffffffffffffffffffffffffffffffffffffffffffffffff1916149050919050565b610d2e81611b50565b610d6d576040517f08c379a0000000000000000000000000000000000000000000000000000000008152600401610d6490612bdb565b60405180910390fd5b50565b600033905090565b816004600083815260200190815260200160002060006101000a81548173ffffffffffffffffffffffffffffffffffffffff021916908373ffffffffffffffffffffffffffffffffffffffff160217905550808273ffffffffffffffffffffffffffffffffffffffff16610deb836106bf565b73ffffffffffffffffffffffffffffffffffffffff167f8c5be1e5ebec7d5bd14f71427d1e84f3dd0314c0f7b2291e5b200ac8c7c3b92560405160405180910390a45050565b600080610e3d836106bf565b90508073ffffffffffffffffffffffffffffffffffffffff168473ffffffffffffffffffffffffffffffffffffffff161480610e7f5750610e7e8185610b8e565b5b80610ebd57508373ffffffffffffffffffffffffffffffffffffffff16610ea5846104e2565b73ffffffffffffffffffffffffffffffffffffffff16145b91505092915050565b8273ffffffffffffffffffffffffffffffffffffffff16610ee6826106bf565b73ffffffffffffffffffffffffffffffffffffffff1614610f3c576040517f08c379a0000000000000000000000000000000000000000000000000000000008152600401610f3390612ed8565b60405180910390fd5b600073ffffffffffffffffffffffffffffffffffffffff168273ffffffffffffffffffffffffffffffffffffffff1603610fab576040517f08c379a0000000000000000000000000000000000000000000000000000000008152600401610fa290612f6a565b60405180910390fd5b610fb6838383611c84565b610fc1600082610d78565b6001600360008573ffffffffffffffffffffffffffffffffffffffff1673ffffffffffffffffffffffffffffffffffffffff16815260200190815260200160002060008282546110119190612fb9565b925050819055506001600360008473ffffffffffffffffffffffffffffffffffffffff1673ffffffffffffffffffffffffffffffffffffffff16815260200190815260200160002060008282546110689190612fed565b92505081905550816002600083815260200190815260200160002060006101000a81548173ffffffffffffffffffffffffffffffffffffffff021916908373ffffffffffffffffffffffffffffffffffffffff160217905550808273ffffffffffffffffffffffffffffffffffffffff168473ffffffffffffffffffffffffffffffffffffffff167fddf252ad1be2c89b69c2b068fc378daa952ba7f163c4a11628f55a4df523b3ef60405160405180910390a4611127838383611c89565b505050565b8173ffffffffffffffffffffffffffffffffffffffff168373ffffffffffffffffffffffffffffffffffffffff160361119a576040517f08c379a00000000000000000000000000000000000000000000000000000000081526004016111919061306d565b60405180910390fd5b80600560008573ffffffffffffffffffffffffffffffffffffffff1673ffffffffffffffffffffffffffffffffffffffff16815260200190815260200160002060008473ffffffffffffffffffffffffffffffffffffffff1673ffffffffffffffffffffffffffffffffffffffff16815260200190815260200160002060006101000a81548160ff0219169083151502179055508173ffffffffffffffffffffffffffffffffffffffff168373ffffffffffffffffffffffffffffffffffffffff167f17307eab39ab6107e8899845ad3d59bd9653f200f220920489ca2b5937696c318360405161128b919061232c565b60405180910390a3505050565b600081600001549050919050565b6112c0828260405180602001604052806000815250611c8e565b5050565b6001816000016000828254019250508190555050565b6112e5848484610ec6565b6112f184848484611ce9565b611330576040517f08c379a0000000000000000000000000000000000000000000000000000000008152600401611327906130ff565b60405180910390fd5b50505050565b606060006040518061014001604052806040518060400160405280600481526020017f4563746f0000000000000000000000000000000000000000000000000000000081525081526020016040518060400160405280600a81526020017f4563746f706c61736d610000000000000000000000000000000000000000000081525081526020016040518060400160405280600481526020017f456374610000000000000000000000000000000000000000000000000000000081525081526020016040518060400160405280600a81526020017f4563746f706c61736d6f0000000000000000000000000000000000000000000081525081526020016040518060400160405280600781526020017f4563746f706c610000000000000000000000000000000000000000000000000081525081526020016040518060400160405280600781526020017f4563746f706c6f0000000000000000000000000000000000000000000000000081525081526020016040518060400160405280600a81526020017f45637461706c61736d610000000000000000000000000000000000000000000081525081526020016040518060400160405280600a81526020017f45637461706c61736d6f0000000000000000000000000000000000000000000081525081526020016040518060400160405280600981526020017f4563746f706c616d65000000000000000000000000000000000000000000000081525081526020016040518060400160405280600981526020017f4563746f706c6f6d65000000000000000000000000000000000000000000000081525081525090508083600a81106115a7576115a661311f565b5b6020020151915050919050565b606060006040518061014001604052806040518060400160405280600381526020017f456174000000000000000000000000000000000000000000000000000000000081525081526020016040518060400160405280600581526020017f4472696e6b00000000000000000000000000000000000000000000000000000081525081526020016040518060400160405280600381526020017f52756e000000000000000000000000000000000000000000000000000000000081525081526020016040518060400160405280600481526020017f426974650000000000000000000000000000000000000000000000000000000081525081526020016040518060400160405280600581526020017f4861756e7400000000000000000000000000000000000000000000000000000081525081526020016040518060400160405280600681526020017f416363757365000000000000000000000000000000000000000000000000000081525081526020016040518060400160405280600381526020017f437279000000000000000000000000000000000000000000000000000000000081525081526020016040518060400160405280600581526020017f447269766500000000000000000000000000000000000000000000000000000081525081526020016040518060400160405280600481526020017f4c696b650000000000000000000000000000000000000000000000000000000081525081526020016040518060400160405280600581526020017f536c65657000000000000000000000000000000000000000000000000000000081525081525090508083600a81106118255761182461311f565b5b6020020151915050919050565b606060006040518061014001604052806040518060400160405280600881526020017f4d6167617a696e6500000000000000000000000000000000000000000000000081525081526020016040518060400160405280600581526020017f4170706c6500000000000000000000000000000000000000000000000000000081525081526020016040518060400160405280600781526020017f56656869636c650000000000000000000000000000000000000000000000000081525081526020016040518060400160405280600581526020017f4e6967687400000000000000000000000000000000000000000000000000000081525081526020016040518060400160405280600581526020017f486561727400000000000000000000000000000000000000000000000000000081525081526020016040518060400160405280600681526020017f447265616d73000000000000000000000000000000000000000000000000000081525081526020016040518060400160405280600681526020017f456e65726779000000000000000000000000000000000000000000000000000081525081526020016040518060400160405280600581526020017f426c6f6f6400000000000000000000000000000000000000000000000000000081525081526020016040518060400160405280600581526020017f50697a7a6100000000000000000000000000000000000000000000000000000081525081526020016040518060400160405280600581526020017f5069616e6f00000000000000000000000000000000000000000000000000000081525081525090508083600a8110611aa357611aa261311f565b5b6020020151915050919050565b60606000611ad7604051806060016040528087815260200186815260200185815250611e70565b90506000611ae482611ee5565b9050600081604051602001611af9919061319a565b6040516020818303038152906040529050600087878784604051602001611b2394939291906132ec565b60405160208183030381529060405290506000611b3f82611ee5565b905080955050505050509392505050565b60008073ffffffffffffffffffffffffffffffffffffffff166002600084815260200190815260200160002060009054906101000a900473ffffffffffffffffffffffffffffffffffffffff1673ffffffffffffffffffffffffffffffffffffffff1614159050919050565b611c56838383604051602401611bd49392919061334b565b6040516020818303038152906040527f1c7ec448000000000000000000000000000000000000000000000000000000007bffffffffffffffffffffffffffffffffffffffffffffffffffffffff19166020820180517bffffffffffffffffffffffffffffffffffffffffffffffffffffffff8381831617835250505050611c5b565b505050565b60008151905060006a636f6e736f6c652e6c6f679050602083016000808483855afa5050505050565b505050565b505050565b611c98838361207c565b611ca56000848484611ce9565b611ce4576040517f08c379a0000000000000000000000000000000000000000000000000000000008152600401611cdb906130ff565b60405180910390fd5b505050565b6000611d0a8473ffffffffffffffffffffffffffffffffffffffff16612255565b15611e63578373ffffffffffffffffffffffffffffffffffffffff1663150b7a02611d33610d70565b8786866040518563ffffffff1660e01b8152600401611d5594939291906133de565b6020604051808303816000875af1925050508015611d9157506040513d601f19601f82011682018060405250810190611d8e919061343f565b60015b611e13573d8060008114611dc1576040519150601f19603f3d011682016040523d82523d6000602084013e611dc6565b606091505b506000815103611e0b576040517f08c379a0000000000000000000000000000000000000000000000000000000008152600401611e02906130ff565b60405180910390fd5b805181602001fd5b63150b7a0260e01b7bffffffffffffffffffffffffffffffffffffffffffffffffffffffff1916817bffffffffffffffffffffffffffffffffffffffffffffffffffffffff191614915050611e68565b600190505b949350505050565b606081600060038110611e8657611e8561311f565b5b602002015182600160038110611e9f57611e9e61311f565b5b602002015183600260038110611eb857611eb761311f565b5b6020020151604051602001611ecf93929190613685565b6040516020818303038152906040529050919050565b606060008251905060008103611f0d5760405180602001604052806000815250915050612077565b60006003600283611f1e9190612fed565b611f2891906136cc565b6004611f3491906136fd565b90506000602082611f459190612fed565b67ffffffffffffffff811115611f5e57611f5d61278b565b5b6040519080825280601f01601f191660200182016040528015611f905781602001600182028036833780820191505090505b509050600060405180606001604052806040815260200161383d604091399050600181016020830160005b868110156120345760038101905062ffffff818a015116603f8160121c168401518060081b905060ff603f83600c1c1686015116810190508060081b905060ff603f8360061c1686015116810190508060081b905060ff603f831686015116810190508060e01b90508084526004840193505050611fbb565b50600386066001811461204e576002811461205e57612069565b613d3d60f01b6002830352612069565b603d60f81b60018303525b508484525050819450505050505b919050565b600073ffffffffffffffffffffffffffffffffffffffff168273ffffffffffffffffffffffffffffffffffffffff16036120eb576040517f08c379a00000000000000000000000000000000000000000000000000000000081526004016120e29061378b565b60405180910390fd5b6120f481611b50565b15612134576040517f08c379a000000000000000000000000000000000000000000000000000000000815260040161212b906137f7565b60405180910390fd5b61214060008383611c84565b6001600360008473ffffffffffffffffffffffffffffffffffffffff1673ffffffffffffffffffffffffffffffffffffffff16815260200190815260200160002060008282546121909190612fed565b92505081905550816002600083815260200190815260200160002060006101000a81548173ffffffffffffffffffffffffffffffffffffffff021916908373ffffffffffffffffffffffffffffffffffffffff160217905550808273ffffffffffffffffffffffffffffffffffffffff16600073ffffffffffffffffffffffffffffffffffffffff167fddf252ad1be2c89b69c2b068fc378daa952ba7f163c4a11628f55a4df523b3ef60405160405180910390a461225160008383611c89565b5050565b6000808273ffffffffffffffffffffffffffffffffffffffff163b119050919050565b6000604051905090565b600080fd5b600080fd5b60007fffffffff0000000000000000000000000000000000000000000000000000000082169050919050565b6122c18161228c565b81146122cc57600080fd5b50565b6000813590506122de816122b8565b92915050565b6000602082840312156122fa576122f9612282565b5b6000612308848285016122cf565b91505092915050565b60008115159050919050565b61232681612311565b82525050565b6000602082019050612341600083018461231d565b92915050565b600081519050919050565b600082825260208201905092915050565b60005b83811015612381578082015181840152602081019050612366565b60008484015250505050565b6000601f19601f8301169050919050565b60006123a982612347565b6123b38185612352565b93506123c3818560208601612363565b6123cc8161238d565b840191505092915050565b600060208201905081810360008301526123f1818461239e565b905092915050565b6000819050919050565b61240c816123f9565b811461241757600080fd5b50565b60008135905061242981612403565b92915050565b60006020828403121561244557612444612282565b5b60006124538482850161241a565b91505092915050565b600073ffffffffffffffffffffffffffffffffffffffff82169050919050565b60006124878261245c565b9050919050565b6124978161247c565b82525050565b60006020820190506124b2600083018461248e565b92915050565b6124c18161247c565b81146124cc57600080fd5b50565b6000813590506124de816124b8565b92915050565b600080604083850312156124fb576124fa612282565b5b6000612509858286016124cf565b925050602061251a8582860161241a565b9150509250929050565b60008060006060848603121561253d5761253c612282565b5b600061254b868287016124cf565b935050602061255c868287016124cf565b925050604061256d8682870161241a565b9150509250925092565b600081519050919050565b600082825260208201905092915050565b6000819050602082019050919050565b6125ac816123f9565b82525050565b60006125be83836125a3565b60208301905092915050565b6000602082019050919050565b60006125e282612577565b6125ec8185612582565b93506125f783612593565b8060005b8381101561262857815161260f88826125b2565b975061261a836125ca565b9250506001810190506125fb565b5085935050505092915050565b6000602082019050818103600083015261264f81846125d7565b905092915050565b6000806000806080858703121561267157612670612282565b5b600061267f8782880161241a565b94505060206126908782880161241a565b93505060406126a18782880161241a565b92505060606126b2878288016124cf565b91505092959194509250565b6126c7816123f9565b82525050565b60006020820190506126e260008301846126be565b92915050565b6000602082840312156126fe576126fd612282565b5b600061270c848285016124cf565b91505092915050565b61271e81612311565b811461272957600080fd5b50565b60008135905061273b81612715565b92915050565b6000806040838503121561275857612757612282565b5b6000612766858286016124cf565b92505060206127778582860161272c565b9150509250929050565b600080fd5b600080fd5b7f4e487b7100000000000000000000000000000000000000000000000000000000600052604160045260246000fd5b6127c38261238d565b810181811067ffffffffffffffff821117156127e2576127e161278b565b5b80604052505050565b60006127f5612278565b905061280182826127ba565b919050565b600067ffffffffffffffff8211156128215761282061278b565b5b61282a8261238d565b9050602081019050919050565b82818337600083830152505050565b600061285961285484612806565b6127eb565b90508281526020810184848401111561287557612874612786565b5b612880848285612837565b509392505050565b600082601f83011261289d5761289c612781565b5b81356128ad848260208601612846565b91505092915050565b600080600080608085870312156128d0576128cf612282565b5b60006128de878288016124cf565b94505060206128ef878288016124cf565b93505060406129008782880161241a565b925050606085013567ffffffffffffffff81111561292157612920612287565b5b61292d87828801612888565b91505092959194509250565b600080604083850312156129505761294f612282565b5b600061295e858286016124cf565b925050602061296f858286016124cf565b9150509250929050565b7f4e487b7100000000000000000000000000000000000000000000000000000000600052602260045260246000fd5b600060028204905060018216806129c057607f821691505b6020821081036129d3576129d2612979565b5b50919050565b7f4552433732313a20617070726f76616c20746f2063757272656e74206f776e6560008201527f7200000000000000000000000000000000000000000000000000000000000000602082015250565b6000612a35602183612352565b9150612a40826129d9565b604082019050919050565b60006020820190508181036000830152612a6481612a28565b9050919050565b7f4552433732313a20617070726f76652063616c6c6572206973206e6f7420746f60008201527f6b656e206f776e6572206e6f7220617070726f76656420666f7220616c6c0000602082015250565b6000612ac7603e83612352565b9150612ad282612a6b565b604082019050919050565b60006020820190508181036000830152612af681612aba565b9050919050565b7f4552433732313a2063616c6c6572206973206e6f7420746f6b656e206f776e6560008201527f72206e6f7220617070726f766564000000000000000000000000000000000000602082015250565b6000612b59602e83612352565b9150612b6482612afd565b604082019050919050565b60006020820190508181036000830152612b8881612b4c565b9050919050565b7f4552433732313a20696e76616c696420746f6b656e2049440000000000000000600082015250565b6000612bc5601883612352565b9150612bd082612b8f565b602082019050919050565b60006020820190508181036000830152612bf481612bb8565b9050919050565b6000819050919050565b612c16612c11826123f9565b612bfb565b82525050565b60008160601b9050919050565b6000612c3482612c1c565b9050919050565b6000612c4682612c29565b9050919050565b612c5e612c598261247c565b612c3b565b82525050565b6000612c708286612c05565b602082019150612c808285612c05565b602082019150612c908284612c4d565b601482019150819050949350505050565b7f4e487b7100000000000000000000000000000000000000000000000000000000600052601260045260246000fd5b6000612cdb826123f9565b9150612ce6836123f9565b925082612cf657612cf5612ca1565b5b828206905092915050565b7f4552433732313a2061646472657373207a65726f206973206e6f74206120766160008201527f6c6964206f776e65720000000000000000000000000000000000000000000000602082015250565b6000612d5d602983612352565b9150612d6882612d01565b604082019050919050565b60006020820190508181036000830152612d8c81612d50565b9050919050565b6000604082019050612da8600083018561248e565b612db560208301846126be565b9392505050565b600081905092915050565b7f646174613a6170706c69636174696f6e2f6a736f6e3b6261736536342c000000600082015250565b6000612dfd601d83612dbc565b9150612e0882612dc7565b601d82019050919050565b6000612e1e82612347565b612e288185612dbc565b9350612e38818560208601612363565b80840191505092915050565b6000612e4f82612df0565b9150612e5b8284612e13565b915081905092915050565b7f4552433732313a207472616e736665722066726f6d20696e636f72726563742060008201527f6f776e6572000000000000000000000000000000000000000000000000000000602082015250565b6000612ec2602583612352565b9150612ecd82612e66565b604082019050919050565b60006020820190508181036000830152612ef181612eb5565b9050919050565b7f4552433732313a207472616e7366657220746f20746865207a65726f2061646460008201527f7265737300000000000000000000000000000000000000000000000000000000602082015250565b6000612f54602483612352565b9150612f5f82612ef8565b604082019050919050565b60006020820190508181036000830152612f8381612f47565b9050919050565b7f4e487b7100000000000000000000000000000000000000000000000000000000600052601160045260246000fd5b6000612fc4826123f9565b9150612fcf836123f9565b9250828203905081811115612fe757612fe6612f8a565b5b92915050565b6000612ff8826123f9565b9150613003836123f9565b925082820190508082111561301b5761301a612f8a565b5b92915050565b7f4552433732313a20617070726f766520746f2063616c6c657200000000000000600082015250565b6000613057601983612352565b915061306282613021565b602082019050919050565b600060208201905081810360008301526130868161304a565b9050919050565b7f4552433732313a207472616e7366657220746f206e6f6e20455243373231526560008201527f63656976657220696d706c656d656e7465720000000000000000000000000000602082015250565b60006130e9603283612352565b91506130f48261308d565b604082019050919050565b60006020820190508181036000830152613118816130dc565b9050919050565b7f4e487b7100000000000000000000000000000000000000000000000000000000600052603260045260246000fd5b7f646174613a696d6167652f7376672b786d6c3b6261736536342c000000000000600082015250565b6000613184601a83612dbc565b915061318f8261314e565b601a82019050919050565b60006131a582613177565b91506131b18284612e13565b915081905092915050565b7f7b226e616d65223a220000000000000000000000000000000000000000000000600082015250565b60006131f2600983612dbc565b91506131fd826131bc565b600982019050919050565b7f222c226465736372697074696f6e223a22416e204e46542066726f6d2074686560008201527f20686967686c79206163636c61696d6564204563746f706c61736d6120636f6c60208201527f6c656374696f6e222c22696d616765223a220000000000000000000000000000604082015250565b600061328a605283612dbc565b915061329582613208565b605282019050919050565b7f227d000000000000000000000000000000000000000000000000000000000000600082015250565b60006132d6600283612dbc565b91506132e1826132a0565b600282019050919050565b60006132f7826131e5565b91506133038287612e13565b915061330f8286612e13565b915061331b8285612e13565b91506133268261327d565b91506133328284612e13565b915061333d826132c9565b915081905095945050505050565b60006060820190508181036000830152613365818661239e565b905061337460208301856126be565b613381604083018461248e565b949350505050565b600081519050919050565b600082825260208201905092915050565b60006133b082613389565b6133ba8185613394565b93506133ca818560208601612363565b6133d38161238d565b840191505092915050565b60006080820190506133f3600083018761248e565b613400602083018661248e565b61340d60408301856126be565b818103606083015261341f81846133a5565b905095945050505050565b600081519050613439816122b8565b92915050565b60006020828403121561345557613454612282565b5b60006134638482850161342a565b91505092915050565b7f3c73766720786d6c6e733d22687474703a2f2f7777772e77332e6f72672f323060008201527f30302f73766722207072657365727665417370656374526174696f3d22784d6960208201527f6e594d696e206d656574222076696577426f783d22302030203335302033353060408201527f223e0d0a202020203c7374796c653e2e62617365207b2066696c6c3a2077686960608201527f74653b20666f6e742d66616d696c793a2073657269663b20666f6e742d73697a60808201527f653a20313870783b207d3c2f7374796c653e0d0a202020203c7265637420776960a08201527f6474683d223130302522206865696768743d2231303025222066696c6c3d222360c08201527f38303030666622202f3e0d0a202020203c7465787420783d223530252220793d60e08201527f223530252220636c6173733d22626173652220646f6d696e616e742d626173656101008201527f6c696e653d226d6964646c652220746578742d616e63686f723d226d6964646c6101208201527f65223e000000000000000000000000000000000000000000000000000000000061014082015250565b600061362261014383612dbc565b915061362d8261346c565b61014382019050919050565b7f3c2f746578743e0d0a3c2f7376673e0000000000000000000000000000000000600082015250565b600061366f600f83612dbc565b915061367a82613639565b600f82019050919050565b600061369082613614565b915061369c8286612e13565b91506136a88285612e13565b91506136b48284612e13565b91506136bf82613662565b9150819050949350505050565b60006136d7826123f9565b91506136e2836123f9565b9250826136f2576136f1612ca1565b5b828204905092915050565b6000613708826123f9565b9150613713836123f9565b9250828202613721816123f9565b9150828204841483151761373857613737612f8a565b5b5092915050565b7f4552433732313a206d696e7420746f20746865207a65726f2061646472657373600082015250565b6000613775602083612352565b91506137808261373f565b602082019050919050565b600060208201905081810360008301526137a481613768565b9050919050565b7f4552433732313a20746f6b656e20616c7265616479206d696e74656400000000600082015250565b60006137e1601c83612352565b91506137ec826137ab565b602082019050919050565b60006020820190508181036000830152613810816137d4565b905091905056fe416e204e465420772f20494420257320686173206265656e206d696e74656420746f2025734142434445464748494a4b4c4d4e4f505152535455565758595a6162636465666768696a6b6c6d6e6f707172737475767778797a303132333435363738392b2fa2646970667358221220ece3831e960e307db378cb2b37b3643766072e67a99e30f0be1f96b1b9643f8c64736f6c63430008110033",
  "linkReferences": {},
  "deployedLinkReferences": {}
}